:020000040800F2
:1000000000A0002045290008DD270008E52700089A
:10001000ED270008F5270008FD2700080000000074
:10002000000000000000000000000000052800089B
:100030000728000800000000092800080B28000815
:100040009529000895290008952900089529000898
:100050009529000895290008952900089529000888
:1000600095290008952900089529000811280008FD
:100070001D2800089529000895290008292800084E
:10008000952900083528000895290008000000007F
:10009000000000000000000000000000952900089A
:1000A000952900084128000895290008952900088D
:1000B0005D280008000000000000000095290008ED
:1000C0009529000895290008952900089529000818
:1000D0009529000869280008752800089529000856
:1000E0009529000895290008000000000000000084
:1000F0000000000000000000000000000000000000
:1001000000000000000000000000000000000000EF
:100110000000000000000000952900080000000019
:1001200095290008952900089529000895290008B7
:1001300095290008000000000000000000000000F9
:100140009529000895290008952900089529000897
:100150009529000895290008952900089529000887
:100160009529000895290008000000000000000003
:1001700000000000952900080000000000000000B9
:0C01800095290008952900089529000821
:1001900010B5054C237833B9044B13B10448AFF3C1
:1001A00000800123237010BD8003002000000000A8
:1001B000A4B3000808B5034B1BB103490348AFF3D0
:1001C000008008BD0000000084030020A4B30008E4
:1001D000034613F8012B002AFBD1181A0138704787
:1001E00001F0FF01102A2BDB10F0070F08D010F8E8
:1001F000013B013A8B422DD010F0070F42B3F6D1EC
:10020000F0B441EA012141EA014122F007047FF004
:1002100000070023F0E80256083C85EA010586EA5B
:10022000010685FA47F5A3FA87F586FA47F6A5FA97
:1002300087F68EB9EED1F0BC01F0FF0102F00702A3
:1002400032B110F8013B013A83EA010313B1F8D14E
:100250000020704701387047002D06BF354603382F
:10026000073815F0010F07D1013015F4807F02BF68
:10027000013015F4C03F0130F0BC0138704700BFB9
:1002800081F0004102E000BF83F0004330B54FEA47
:1002900041044FEA430594EA050F08BF90EA020FB4
:1002A0001FBF54EA000C55EA020C7FEA645C7FEA47
:1002B000655C00F0E2804FEA5454D4EB5555B8BF6A
:1002C0006D420CDD2C4480EA020281EA030382EADB
:1002D000000083EA010180EA020281EA0303362D6D
:1002E00088BF30BD11F0004F4FEA01314FF4801C40
:1002F0004CEA113102D0404261EB410113F0004F52
:100300004FEA03334CEA133302D0524263EB430308
:1003100094EA050F00F0A780A4F10104D5F1200EA6
:100320000DDB02FA0EFC22FA05F2801841F1000101
:1003300003FA0EF2801843FA05F359410EE0A5F1D5
:1003400020050EF1200E012A03FA0EFC28BF4CF006
:10035000020C43FA05F3C01851EBE37101F00045BC
:1003600007D54FF0000EDCF1000C7EEB00006EEBC9
:100370000101B1F5801F1BD3B1F5001F0CD3490853
:100380005FEA30004FEA3C0C04F101044FEA4452AA
:1003900012F5800F80F09A80BCF1004F08BF5FEA31
:1003A000500C50F1000041EB045141EA050130BD11
:1003B0005FEA4C0C404141EB0101013C28BFB1F523
:1003C000801FE9D291F0000F04BF01460020B1FA6E
:1003D00081F308BF2033A3F10B03B3F120020CDA41
:1003E0000C3208DD02F1140CC2F10C0201FA0CF01F
:1003F00021FA02F10CE002F11402D8BFC2F1200C84
:1004000001FA02F120FA0CFCDCBF41EA0C01904039
:10041000E41AA2BF01EB0451294330BD6FEA040482
:100420001F3C1CDA0C340EDC04F11404C4F120026D
:1004300020FA04F001FA02F340EA030021FA04F37F
:1004400045EA030130BDC4F10C04C4F1200220FAD6
:1004500002F001FA04F340EA0300294630BD21FA14
:1004600004F0294630BD94F0000F83F4801306BFDA
:1004700081F480110134013D4EE77FEA645C18BFCE
:100480007FEA655C29D094EA050F08BF90EA020F65
:1004900005D054EA000C04BF1946104630BD91EA5D
:1004A000030F1EBF0021002030BD5FEA545C05D160
:1004B0004000494128BF41F0004130BD14F580049F
:1004C0003CBF01F5801130BD01F0004545F0FE4113
:1004D00041F470014FF0000030BD7FEA645C1ABF48
:1004E000194610467FEA655C1CBF0B46024650EA7F
:1004F000013406BF52EA033591EA030F41F40021AB
:1005000030BD00BF90F0000F04BF0021704730B530
:100510004FF4806404F132044FF000054FF0000105
:1005200050E700BF90F0000F04BF0021704730B5C6
:100530004FF4806404F1320410F0004548BF40429B
:100540004FF000013EE700BF42004FEAE2014FEAF0
:1005500031014FEA02701FBF12F07F4393F07F4FCB
:1005600081F06051704732F07F4208BF704793F0CE
:100570007F4F04BF41F40021704730B54FF46074E1
:1005800001F0004521F000411CE700BF50EA0102E4
:1005900008BF704730B54FF000050AE050EA01028D
:1005A00008BF704730B511F0004502D5404261EBFD
:1005B00041014FF4806404F132045FEA915C3FF43E
:1005C000D8AE4FF003025FEADC0C18BF03325FEADB
:1005D000DC0C18BF033202EBDC02C2F1200300FA8C
:1005E00003FC20FA02F001FA03FE40EA0E0021FAB1
:1005F00002F11444BDE600BF70B54FF0FF0C4CF49F
:10060000E06C1CEA11541DBF1CEA135594EA0C0F50
:1006100095EA0C0F00F0DEF82C4481EA030621EA8B
:100620004C5123EA4C5350EA013518BF52EA0335C6
:1006300041F4801143F4801338D0A0FB02CE4FF078
:100640000005E1FB02E506F00042E0FB03E54FF0A8
:100650000006E1FB03569CF0000F18BF4EF0010EA0
:10066000A4F1FF04B6F5007F64F5407404D25FEA9C
:100670004E0E6D4146EB060642EAC62141EA55514F
:100680004FEAC52040EA5E504FEACE2EB4F1FD0C91
:1006900088BFBCF5E06F1ED8BEF1004F08BF5FEA0F
:1006A000500E50F1000041EB045170BD06F00046C1
:1006B00046EA010140EA020081EA0301B4EB5C046E
:1006C000C2BFD4EB0C0541EA045170BD41F4801166
:1006D0004FF0000E013C00F3AB8014F1360FDEBF8B
:1006E000002001F0004170BDC4F10004203C35DA67
:1006F0000C341BDC04F11404C4F1200500FA05F3EA
:1007000020FA04F001FA05F240EA020001F000428A
:1007100021F0004110EBD37021FA04F642EB060100
:100720005EEA430E08BF20EAD37070BDC4F10C042A
:10073000C4F1200500FA04F320FA05F001FA04F2EE
:1007400040EA020001F0004110EBD37041F10001DA
:100750005EEA430E08BF20EAD37070BDC4F12005E5
:1007600000FA05F24EEA020E20FA04F301FA05F24D
:1007700043EA020321FA04F001F0004121FA04F2F5
:1007800020EA020000EBD3705EEA430E08BF20EAC5
:10079000D37070BD94F0000F0FD101F000464000FF
:1007A00041EB010111F4801F08BF013CF7D041EA81
:1007B000060195F0000F18BF704703F00046520085
:1007C00043EB030313F4801F08BF013DF7D043EA56
:1007D0000603704794EA0C0F0CEA135518BF95EA0C
:1007E0000C0F0CD050EA410618BF52EA4306D1D193
:1007F00081EA030101F000414FF0000070BD50EAB2
:10080000410606BF1046194652EA430619D094EA3B
:100810000C0F02D150EA013613D195EA0C0F05D125
:1008200052EA03361CBF104619460AD181EA030179
:1008300001F0004141F0FE4141F470014FF0000031
:1008400070BD41F0FE4141F4780170BD70B54FF0CC
:10085000FF0C4CF4E06C1CEA11541DBF1CEA13554C
:1008600094EA0C0F95EA0C0F00F0A7F8A4EB05042E
:1008700081EA030E52EA03354FEA013100F0888025
:100880004FEA03334FF0805545EA131343EA1263EE
:100890004FEA022245EA111545EA10654FEA0026A3
:1008A0000EF000419D4208BF964244F1FD0404F55C
:1008B000407402D25B084FEA3202B61A65EB0305B8
:1008C0005B084FEA32024FF480104FF4002CB6EB75
:1008D000020E75EB030E22BFB61A754640EA0C00F5
:1008E0005B084FEA3202B6EB020E75EB030E22BF35
:1008F000B61A754640EA5C005B084FEA3202B6EB76
:10090000020E75EB030E22BFB61A754640EA9C0034
:100910005B084FEA3202B6EB020E75EB030E22BF04
:10092000B61A754640EADC0055EA060E18D04FEAC2
:10093000051545EA16754FEA06164FEAC30343EA62
:1009400052734FEAC2025FEA1C1CC0D111F4801F2F
:100950000BD141EA00014FF000004FF0004CB6E728
:1009600011F4801F04BF01430020B4F1FD0C88BFC7
:10097000BCF5E06F3FF6AFAEB5EB030C04BFB6EBD2
:10098000020C5FEA500C50F1000041EB045170BDC5
:100990000EF0004E4EEA113114EB5C04C2BFD4EBF2
:1009A0000C0541EA045170BD41F480114FF0000E76
:1009B000013C90E645EA060E8DE60CEA135594EAF2
:1009C0000C0F08BF95EA0C0F3FF43BAF94EA0C0FF5
:1009D0000AD150EA01347FF434AF95EA0C0F7FF46A
:1009E00025AF104619462CE795EA0C0F06D152EABE
:1009F00003353FF4FDAE1046194622E750EA4106A2
:100A000018BF52EA43067FF4C5AE50EA41047FF4B2
:100A10000DAF52EA43057FF4EBAE12E74FF0FF3C17
:100A200006E000BF4FF0010C02E000BF4FF0010CE8
:100A30004DF804CD4FEA410C7FEA6C5C4FEA430C61
:100A400018BF7FEA6C5C1BD001B050EA410C0CBFB0
:100A500052EA430C91EA030F02BF90EA020F002012
:100A6000704710F1000F91EA030F58BF994208BF79
:100A700090422CBFD8176FEAE37040F00100704736
:100A80004FEA410C7FEA6C5C02D150EA013C07D18D
:100A90004FEA430C7FEA6C5CD6D152EA033CD3D0D8
:100AA0005DF8040B704700BF8446104662468C46D2
:100AB0001946634600E000BF01B5FFF7B7FF002805
:100AC00048BF10F1000F01BD4DF808EDFFF7F4FF2E
:100AD0000CBF012000205DF808FB00BF4DF808EDB9
:100AE000FFF7EAFF34BF012000205DF808FB00BFDC
:100AF0004DF808EDFFF7E0FF94BF012000205DF8FE
:100B000008FB00BF4DF808EDFFF7CEFF94BF0120B2
:100B100000205DF808FB00BF4DF808EDFFF7C4FFAB
:100B200034BF012000205DF808FB00BF4FEA410CF4
:100B30007FEA6C5C02D150EA013C0AD14FEA430CD7
:100B40007FEA6C5C02D152EA033C02D14FF0000014
:100B500070474FF0010070474FEA410212F5001252
:100B600015D211D56FF47873B3EB625212D94FEAF4
:100B7000C12343F0004343EA505311F0004F23FADE
:100B800002F018BF404270474FF00000704750EA33
:100B9000013005D111F0004008BF6FF000407047F0
:100BA0004FF00000704700BF4A0011D212F500124A
:100BB00011D20DD56FF47873B3EB62520ED44FEAB5
:100BC000C12343F0004343EA505323FA02F0704735
:100BD0004FF00000704750EA013002D14FF0FF3073
:100BE00070474FF0000070474FEA4102B2F1E04316
:100BF00024BFB3F5001CDCF1FE5C0DD901F0004C04
:100C00004FEAC0024CEA5070B2F1004F40EB830053
:100C100008BF20F00100704711F0804F21D113F17F
:100C20003872BCBF01F00040704741F480114FEAB8
:100C30005252C2F11802C2F1200C10FA0CF320FA41
:100C400002F018BF40F001004FEAC1234FEAD3235E
:100C500003FA0CFC40EA0C0023FA02F34FEA4303C8
:100C6000CCE77FEA625307D150EA01331EBF4FF051
:100C7000FE4040F44000704701F0004040F0FE406C
:100C800040F40000704700BF53B94AB9002908BFBB
:100C900000281CBF4FF0FF314FF0FF3000F0AAB921
:100CA000ADF1080C6DE904CE00F03CF8DDF804E08D
:100CB000DDE9022304B0704738B500220023044662
:100CC0000D46FFF70BFF28B920462946BDE83840FE
:100CD00000F00AB8204605F1004100F005F8404256
:100CE00061EB410138BD00BFD0B50C4B0022064678
:100CF0000F46FFF781FCFFF757FF0446FFF702FCA2
:100D0000074B0022FFF778FC02460B463046394677
:100D1000FFF7BAFAFFF748FF2146D0BD0000F03DCB
:100D20000000F0412DE9F047089D04468E46002B57
:100D30004DD18A42944669D9B2FA82F252B101FA8F
:100D400002F3C2F1200120FA01F10CFA02FC41EA9F
:100D5000030E94404FEA1C48210CBEFBF8F61FFA24
:100D60008CF708FB16E341EA034306FB07F19942BF
:100D70000AD91CEB030306F1FF3080F01F81994272
:100D800040F21C81023E63445B1AA4B2B3FBF8F04C
:100D900008FB103344EA034400FB07F7A7420AD9D3
:100DA0001CEB040400F1FF3380F00A81A74240F2FB
:100DB00007816444023840EA0640E41B00261DB166
:100DC000D4400023C5E900433146BDE8F0878B429B
:100DD00009D9002D00F0EF800026C5E9000130465A
:100DE0003146BDE8F087B3FA83F6002E4AD18B4234
:100DF00002D3824200F2F980841A61EB03030120DE
:100E00009E46002DE0D0C5E9004EDDE702B9FFDEC9
:100E1000B2FA82F2002A40F09280A1EB0C014FEA74
:100E20001C471FFA8CFE0126200CB1FBF7F307FBD1
:100E3000131140EA01410EFB03F0884208D91CEB74
:100E4000010103F1FF3802D2884200F2CB80434611
:100E5000091AA4B2B1FBF7F007FB101144EA0144F0
:100E60000EFB00FEA64508D91CEB040400F1FF317F
:100E700002D2A64500F2BB800846A4EB0E0440EA6D
:100E800003409CE7C6F12007B34022FA07FC4CEA76
:100E9000030C20FA07F401FA06F31C43F9404FEA69
:100EA0001C4900FA06F3B1FBF9F8200C1FFA8CFE7E
:100EB00009FB181140EA014108FB0EF0884202FAD2
:100EC00006F20BD91CEB010108F1FF3A80F0888093
:100ED000884240F28580A8F102086144091AA4B250
:100EE000B1FBF9F009FB101144EA014100FB0EFED1
:100EF0008E4508D91CEB010100F1FF346CD28E4500
:100F00006AD90238614440EA0840A0FB0294A1EB90
:100F10000E01A142C846A64656D353D05DB1B3EBED
:100F2000080261EB0E0101FA07F722FA06F3F1401D
:100F30001F43C5E9007100263146BDE8F087C2F1C4
:100F40002003D8400CFA02FC21FA03F3914001433C
:100F50004FEA1C471FFA8CFEB3FBF7F007FB103675
:100F60000B0C43EA064300FB0EF69E4204FA02F421
:100F700008D91CEB030300F1FF382FD29E422DD974
:100F8000023863449B1B89B2B3FBF7F607FB1633A9
:100F900041EA034106FB0EF38B4208D91CEB010129
:100FA00006F1FF3816D28B4214D9023E6144C91AA9
:100FB00046EA004638E72E46284605E70646E3E6B9
:100FC0001846F8E64B45A9D2B9EB020864EB0C0EC3
:100FD0000138A3E74646EAE7204694E74046D1E7D2
:100FE000D0467BE7023B614432E7304609E7644480
:100FF000023842E7704700BF2DE9F84F1E4B0268E8
:101000001B689A42054623D11C4EDFF88C800024D1
:101010004FF00A090134194AB4FBF9F309FB1343F1
:1010200036F8027B32F81300381AFFF77BFA21F00A
:10103000004B134B00225946FFF750FD08B936F814
:10104000047C28F8027B0A2CE4D10E4B03221A7090
:101050000D4B2A681B689A420CD10C4B0C4A03F1C9
:10106000140153F8040B42F8040B8B42F9D1094BDD
:1010700003221A70BDE8F88F80070020C403002007
:101080000000694000000020E4070020D803002091
:101090009C03002001000020B0030020034A044804
:1010A00005231370034A137005F03EBF00000020B3
:1010B000CCB300080100002008B505487F2102F0EC
:1010C00073F918B1BDE8084001F064B908BD00BF6C
:1010D0008007002008B505487F2102F065F918B1A6
:1010E000BDE8084001F056B908BD00BFE407002084
:1010F00008B5054A00231370044A1370FFF7DCFF9C
:10110000BDE80840FFF7E6BFEC030020ED03002038
:1011100008B5054905480A2202F056F818B1BDE89D
:10112000084001F037B908BDC40300208007002043
:1011300008B5044802F0F6F818B1BDE8084001F01F
:1011400029B908BD8007002008B5044802F0EAF874
:1011500018B1BDE8084001F01DB908BDE407002042
:101160000023044A184632F8021B01330A2B0844B4
:10117000F9D17047B0030020114B1A68182AC8BF74
:10118000182270B5C8BF1A6019681E681D681A68F1
:101190000C4B53F821400C4953F8222051F82610EB
:1011A0004443B4FBF1F4094951F82500C517A4FBE9
:1011B0000001D31704FB0511FFF766FD70BD00BFEA
:1011C0005C0500207C00002004000020F4000020CA
:1011D000014B1878704700BFEC030020431E10B588
:1011E0000446042B06D8DFE803F00308050B0300D0
:1011F000FFF79EFF044B1C7010BDFFF789FFF9E756
:10120000024B02221A70F5E7EC03002000000020D8
:10121000044B1878044B1B78834201D0FFF7DEBFE4
:10122000704700BF00000020EC030020014B9878BD
:10123000704700BFF0030020014B00229A707047F6
:10124000F003002008B510214FF0904002F054FD4B
:101250000D4B01461A78B0FA80F04009824205D061
:10126000187011B901229A70596008BD002AFCD08B
:101270005A68B2F57A7F03D140F2E9325A60F4E756
:10128000F3D20132FAE700BFF0030020F8B502F014
:1012900017FB2C4BD3F8E0254FF6FF7391B2994220
:1012A00035D0294B03EA8223284A03F10063934295
:1012B0002DD8D31ADB0A264A1360224AD2F8E01549
:1012C0004FF6FF7288B2904223D01F4A02EA812271
:1012D00002F100611F4A91421BD8521AD20AC3F18F
:1012E00001010A441C491D480A60012101601C4893
:1012F0000024C0E900411B49C0E9023202F0D4FBDE
:10130000044640B102F0F8FAC4B22046F8BD3C23CE
:10131000D1E73F22E3E7144D0C4B0E4E134F2B60E9
:101320002968B14202D302F0DDFAEEE73B68002003
:10133000D3E9002302F012FB0028E3D12B68043329
:101340002B60EDE70070FF1F00FCFF0300E00108C9
:1013500010040020FFFF010814040020FC030020FB
:101360000004002018040020F80300207001002071
:10137000074A084B1068186092889A8018889A88E3
:101380005B881043184380B2B0FA80F04009704780
:1013900000E001085405002002480022082102F064
:1013A000B1BC00BF0004004808B9FFF7F5BF8307D0
:1013B00004D503480122082102F0A4BCFFF7ECBFCA
:1013C0000004004808B5FFF7E7FF024B00225A73FC
:1013D00008BD00BF1C04002038B5044C002565730F
:1013E0002570FFF7D9FFA560257338BD1C040020C8
:1013F000F7B5134D0446FFF7EFFF2E7BB6B9032C6C
:101400006B7B28BF0024A34210D00E4A06236343FF
:10141000D118D05C4F880190FFF7BEFF4FF6FF73E5
:101420009F42019804D12E706E606C7303B0F0BDC2
:10143000FFF7BAFF01232B7001F0F0FA6860F4E7C0
:101440001C040020E2B30008F8B5254C637BA3B16F
:10145000022B06D9002363732370BDE8F840FFF721
:101460009BBFA2684FF6FF718A4207D100236373C6
:101470002370FFF791FF01232373F8BD4FF6FE7130
:101480008A42FAD801321749A26006225343C8188B
:101490004FF6FD7645886A1E92B2B242EDD82278A8
:1014A00086884AB101F0BAFA6368C01AB042E4D340
:1014B000FFF772FF00230AE0CF5C01F0AFFA636828
:1014C000C01AA84208D33846FFF76EFF01232370E5
:1014D00001F0A4FA6060D0E72378002BCDD0E1E7DB
:1014E0001C040020E2B3000807B50A28019006D1C9
:1014F000084909484FF6FF73012204F09DFC4FF69E
:10150000FF73012201A9044804F096FC019803B07E
:101510005DF804FB96B90008D00A0020014B18685A
:1015200005F002BD6C01002000B58BB00021242223
:1015300001A8009104F0F0FD054A0649684605F04F
:1015400001FD684605F0F0FC0BB05DF804FB00BF40
:10155000F4B3000802B4000810B5064C23783BB180
:101560000A2305480122214604F066FC002323706B
:1015700010BD00BF79060020D00A002010B5054C30
:101580004FF480720021601C04F0C6FD002323701C
:1015900010BD00BF30040020F8B5184E07460025E6
:1015A000327931683846ECB205F065FD28B1013575
:1015B000062D06F10806F3D1F8BD631E042B04D8EE
:1015C000DFE803F0070B0F131700BDE8F84000F049
:1015D00049BBBDE8F84000F04BBBBDE8F840FFF761
:1015E00055BEBDE8F84000F023B9BDE8F840FFF76C
:1015F00095BFBDE8F840FFF797BF00BF50B70008A0
:10160000F8B5204F04460E4600253A793968204641
:1016100005F031FD28B101350B2D07F10807F4D194
:10162000F8BD6B1E092B06D8DFE803F00B11191F5C
:1016300025252525252531462046BDE8F84000F022
:1016400037B931462046BDE8F84000F047B900F010
:101650000FFB31462046BDE8F84000F04FB9314657
:101660002046BDE8F84000F07FB931462046BDE88D
:10167000F84000F0C5B8681FC0B2BDE8F84000F0FF
:1016800063B800BF80B70008F8B52A4E2A4C2B4F2C
:10169000284800F0F7FBE8B923784BB101F0BEF918
:1016A000D4F80431C01AB0F5FA6F01D9FFF766FF1C
:1016B00000F0D2FA02280CD101F0B0F9D4F80831C8
:1016C000C01A42F21073984203D901F0A7F9C4F886
:1016D0000801F8BD01F0A2F93378C4F80401232B06
:1016E00002D02278002AD3D0257862190135EDB2D4
:1016F0000D2B53702570CBD111480422394605F0CB
:10170000BAFCADB228B10F490D48042205F0B3FC74
:1017100050B90B482946FFF773FFFFF72FFF01F081
:101720007DF9C4F80801B3E705482946FFF734FFFF
:10173000F3E700BF2C0400203004002018B4000898
:10174000310400201DB4000810B588B00023CDE995
:101750000533CDF81B301F4B044653F8301005A855
:1017600005F081FC052C0BD8DFE804F003101318FA
:101770001D22194B1B88194905AA194805F0E2FBDF
:101780001749184805F04AFB08B010BD124B5B889A
:10179000F1E7114B14499B8805AAEEE7134B144956
:1017A0001B6805AAE9E7134B13491B6805AAE4E780
:1017B0000E4B0B481A680F4B1968074BCDE90221F5
:1017C0009A8801925A8800921B880C4905AA05F054
:1017D000B9FBD5E7E0B8000854050020D8B70008E9
:1017E0006405002041B80008E3B700085C0500204C
:1017F000EEB7000860050020FBB7000805B8000838
:1018000008B5084A084905F0BDFB00F025FA022892
:1018100002D1064803F0F2F8BDE808400420FFF7C3
:1018200093BF00BF6005002046B80008B40900203F
:10183000074B14221A804FF47A725A8064229A80DD
:10184000044A00231360044A1360FFF71FBD00BF62
:10185000540500205C0500206005002010494FF071
:101860008040002343628A880E4BB3FBF2F34A8820
:10187000013BC36202F10A0383630B880A4903EB4D
:10188000420303F10A000860981A486007490533CB
:10189000053205300A6048608B600523CB607047D5
:1018A0005405002040420F003C0500204405002064
:1018B00010B5084C0849224605F064FB2388092B23
:1018C0009CBF0A232380FFF7C9FFBDE8104000201A
:1018D000FFF73ABF5405002057B8000808B5054A7D
:1018E000054905F04FFBFFF7B9FFBDE808400120AF
:1018F000FFF72ABF5605002068B8000810B5124C43
:101900001249221D05F03EFBA388114AB2FBF3F2F7
:101910006388218805330B44B2EB430FDCBF0123FE
:10192000A38000F099F902280AD100F0A1F9FFF78D
:1019300095FF00F097F9BDE810400220FFF704BFC3
:10194000FFF78CFFF7E700BF5405002079B80008C7
:1019500040420F00024B1A68024B5A63704700BFA7
:101960005C050020002C014008B5094A094905F032
:1019700009FB00F071F9022802D1074803F03EF894
:10198000FFF7E8FF0320BDE80840FFF7DDBE00BF1A
:101990005C0500208AB80008B40900201D4B1E4ACF
:1019A0001B681E4953431A1A8A421D4913DB8A4297
:1019B00011DA83421B4B0AD91A6801321A601A4A9B
:1019C000012111701A68194B5A6300207047F6D232
:1019D0001A68013AF2E7002AB8BF52428A4215DD7E
:1019E0008342104B05D91A6801321A6000210E4A51
:1019F000E7E7E7D21A68013A1A600B4A0121117031
:101A00001A68002ADCBF00221A60DBE7064B0122BD
:101A10001A70DAE76005002040420F00C188E4FF39
:101A200040771B005C0500205A050020002C014077
:101A300008B5054B05480021196003F0DDFBBDE842
:101A40000840034803F004B85C0500206809002042
:101A5000B409002010B50B4C0421204603F0CCFB48
:101A60000021204603F0B2FC0C21204603F0AEFC1E
:101A7000FFF7DEFFFFF768FB2046BDE8104002F0ED
:101A8000E7BF00BF000A002008B5064B06481A68E9
:101A9000064B00215A6303F05FFBBDE80840044891
:101AA00002F0ACBF5C05002068090020002C01405A
:101AB000B409002030B500258BB03F4C02951C22A4
:101AC000294603A8CDE9005504F026FB4F234FF02B
:101AD000804CC4E900C340F2E733C4E90335204633
:101AE0008023A560A36103F069F908B100F052FCFE
:101AF000314803F093F908B100F04CFC2023009327
:101B00002D4800236946029303F0D6FC08B100F08B
:101B100041FC302005230022CDE9030303A9264818
:101B20000592079203F0E2F908B100F033FC60215E
:101B300040F2F233CDE903131F48042203A903F056
:101B400009FA08B100F026FC22681B48936923F4C7
:101B50000063936130224FF48263CDE903230C22AA
:101B60000DEB020103F0C2F908B100F013FC1248BA
:101B700000F070FDFFF772FE04210F4803F0ECFA4D
:101B80000E4A0D480423002103F038FB0C4B0A4891
:101B90001A68136823F0060313600C21094A022314
:101BA00003F02CFB084B1A68136823F0060313603C
:101BB000FFF76AFF0BB030BD000A0020440500208B
:101BC000D80800203C0500202009002010B5C820BE
:101BD0008EB0002400F028FF3322214601A8009493
:101BE00004F09AFAFFF7C4FB58B1134B14221A8081
:101BF0004FF47A725A8064229A80104B1C60104B0A
:101C00001C60FFF791FC02F0D9FC0E4902466846C1
:101C100005F098F9684605F087F9FFF769FAFFF7CC
:101C20007DFCFFF7CFFB00F011F8FFF7A7FC00F0F9
:101C3000F3F80EB010BD00BF540500205C05002075
:101C40006005002010B9000801F0C0BC014B002263
:101C50001A70704764060020014B1878704700BF67
:101C600064060020014B02221A70704774010020A4
:101C7000014B01221A70704774010020022810B530
:101C800004460DD003280ED0012806D1FFF7E2FE4E
:101C90002046FFF7ADFB074B1C70074B1C7010BDB7
:101CA000FFF708FFF4E70120FFF7A2FB014B052235
:101CB0001A70F2E7000000206406002008B5FFF764
:101CC000B5FA0B4B20B11A78012A0CD102221A70F6
:101CD0001878084B1B78834209D0FFF7CFFFBDE887
:101CE0000840FFF7A9BA022AF2D10122EFE708BDA6
:101CF000740100206406002010B5FFF731FA0A4B8A
:101D0000DFED0A0A9FED0A0A1860FFF735FA094B62
:101D10000024C3E90004FFF741FE074B1C60074B9A
:101D200001221A7010BD00BF680600200000DC42CE
:101D30000000614570060020780100207806002030
:101D4000F8B5164D2B7833B3154B1648D3E9006719
:101D5000154B196805F062F8144A002330463946DD
:101D6000FEF792FF002314463046104A3946FEF72C
:101D70008BFF224601460E4805F050F80D4B0E48E9
:101D8000196805F04BF80D4B0D48196805F046F839
:101D90000C4805F0C9F800232B70F8BD7806002028
:101DA000700600203FB900086806002040420F007E
:101DB00053B900086005002066B900085C050020E2
:101DC0007CB900088CB900080268104B9A4210B523
:101DD00014D1FFF7FDF9032810D10D4C23680A2B0D
:101DE0000DD10C4B1B780BB9FFF786FFFFF7A8FF4F
:101DF0000420FFF7F3F923680133236010BD022BA1
:101E0000F4D1044B1B78002BF0D0EDE700440140E7
:101E1000780100205A05002010B5084C084B00221C
:101E200020461A805A809A8003F0EEFB204605492E
:101E3000BDE81040012204F01BB900BFD00A002009
:101E40007A0600207906002002680A4B9A420BD1DC
:101E5000094A0A4B197853880133DBB25380134483
:101E6000997193880133938004490548012204F055
:101E7000FFB800BF004400407A0600207906002029
:101E8000D00A002010B50B4CA3888BB123880133F6
:101E9000DBB2238023449B790370262001F082FB70
:101EA000A3882620013BA38001F06EFB012010BD1A
:101EB0001846FCE77A06002030B597B0442200218E
:101EC00005A8142504F028F92A460021684604F0E4
:101ED00023F94FF4007001F02BFF044608B172B6ED
:101EE000FEE701F015FF174AD2F8903023F01803EF
:101EF000C2F89030602201230E920222CDE90C3408
:101F0000CDE910230793129305A82823CDE91332B6
:101F10000595159201F0D2FF08B172B6FEE7CDE942
:101F200002000F220323049004216846CDE9002318
:101F300002F09AFA08B172B6FEE702F05FFC17B041
:101F400030BD00BF001002402DE98048B04D9DB06B
:101F500000F048FDFFF7B0FF1422002111A804F0A3
:101F6000DBF8EB6CAB4843F00403EB64EB6C03F081
:101F700004030493049BEB6C43F00103EB64EB6CF0
:101F800003F001030593059BEB6C43F00203EB6444
:101F9000EB6C03F00203069300223A21069B01F04A
:101FA000B1FE00224FF4F0514FF09040002401F0B8
:101FB000A9FE0126102711A94FF09040CDE9117418
:101FC000139601F0DBFD3A23924811A9CDE91136B1
:101FD000CDE9134401F0D2FD4FF4F05311A94FF0B5
:101FE0009040CDE91136CDE9134401F0C7FDAB6C4B
:101FF0003343AB64AB6C884D3340224602210393DC
:102000000B20039B01F08EFA0B2001F0BDFA224653
:1020100002210C2001F086FA0C2001F0B5FA2246CC
:1020200021460F2001F07EFA0F2001F0ADFA224682
:102030002146112001F076FA112001F0A5FA1C22A8
:1020400021460AA8CDE90744099404F065F82C223A
:10205000214611A804F060F8704BAF60C5E9003666
:102060004FF08008C7232846C5E903346C61C5F8E2
:10207000188002F0D3FE08B172B6FEE7CDE9070082
:10208000099007A9284603F017FA024608B172B66C
:10209000FEE7CDE90C00CDE90E00602710900AA9FB
:1020A0002846CDE90A7602F055FF08B172B6FEE780
:1020B0004FF40053CDE916304FF00073CDE9110015
:1020C000CDE91300CDE91930159018901B9011A996
:1020D000284603F023FA064608B172B6FEE7284602
:1020E00000F0B8FA4E4C0C961C22314611A8CDE9EE
:1020F0000A6604F011F84FF080404F23C4E9000352
:1021000040F2E7332046C4E90336A660C4F81880DD
:1021100002F054FE08B172B6FEE7204602F07EFEE1
:1021200008B172B6FEE720230C900AA920460A9354
:1021300003F0C2F9024608B172B6FEE73025052366
:102140001390159011A92046CDE9115302F0CEFE4F
:1021500008B172B6FEE740F2F233042211A920461C
:102160001197129302F0F6FE08B172B6FEE72268EC
:10217000936923F40063936111A94FF482630C22E5
:1021800020461195129302F0B1FE08B172B6FEE737
:10219000234800F05FFA2348234941F63F73C0E922
:1021A000001340F2E7320023C0E90232C0E90433F1
:1021B0008023836102F0D2FD034608B172B6FEE7C8
:1021C0001A481B4A03614FF4E1340C26C0E902337C
:1021D000C0E90563C0E907334362C0E9002403F0A6
:1021E000B8FE034608B172B6FEE71248124AC0E9CB
:1021F0000233C0E90024C0E90436C0E90633C0E96F
:10220000083303F0A6FE0546C0B172B6FEE700BF74
:10221000001002400004004868090020002C014022
:10222000000A0020B4090020004401404C0A0020AC
:1022300000380140D00A0020004400404D4C0C9072
:10224000CDE90A000146182211A803F065FF4FF4FA
:102250008078494BA4F818804FF0080901272046E0
:10226000C4E90035C4E90255C4E90A552561C4F83A
:102270001490E76184F8205084F83050656384F846
:10228000385000F0FBFB08B172B6FEE70A900AA9CD
:10229000204601F0D3F808B172B6FEE7374B4FF095
:1022A000040BCDE915B011A94FF0060A7F25204691
:1022B000CDE9113ACDE913B500F0FEFC014608B1B5
:1022C00072B6FEE72E4C0190182211A803F024FFED
:1022D0002C4B019923600223E3614FF4D8624FF441
:1022E0008063A4F818802046C4E90111C4E90317EB
:1022F000C4E90A23C4F8149084F8201084F83070DC
:10230000616384F8381000F0B9FB08B172B6FEE7DB
:102310001D4BCDE915B011A92046CDE9113ACDE903
:1023200013B500F0C9FC08B172B6FEE7174B11A94E
:102330002046CDE9113600F0BFFC08B172B6FEE7C9
:10234000FFF744FC124CFFF79FF900F067FB23688E
:10235000C01A0928F7D9FFF7B1FCFEF773FFFFF7A2
:1023600073F8FEF755FFFFF7F7F800F057FB206012
:10237000E9E700BF80070020000004500008302E6D
:10238000E407002000010450001060320080F03E9D
:10239000540B002072B6FEE70A4B1A6E42F001029F
:1023A0001A661A6E82B002F001020092009A9A6DCB
:1023B00042F080529A659B6D03F080530193019B1C
:1023C00002B0704700100240F0B514228BB00546F1
:1023D00000210DEB020003F09FFE2B68444A93425C
:1023E0003ED1444A13680133012B1360424B08D19C
:1023F000DA6C42F40052DA64DA6C02F400520092B1
:10240000009ADA6C3D4C42F00102DA64DB6C03F0B6
:1024100001030193019B40210B23CDE905134FF0EC
:10242000904005A901F0AAFB80264FF48072344841
:102430000023C4E904624FF48062C4E90003C4E9E4
:102440000233C4E906234FF400532362204601F00F
:10245000E3F808B1FFF79EFFEC64A5620BB0F0BD96
:10246000284A9342FAD1234A13680133012B13609F
:10247000214B08D1DA6C42F40052DA64DA6C02F4CF
:1024800000520292029ADA6C42F00102DA64DA6CCB
:1024900002F001020392039ADA6C42F00202DA645B
:1024A000DB6C03F002030B240493802705A94FF093
:1024B00090400026CDE90574049B01F05FFB0123E9
:1024C0001148079605A9CDE9053401F057FB0F4CDB
:1024D0000F4B2761C4E900364FF480724FF48063DC
:1024E000C4E905232023C4E90266C4E90736ADE741
:1024F00000000450580B0020001002404808002043
:102500000800024000010450000400489008002028
:102510001C00024007B50E4B02689A4215D103F524
:10252000644302211A6E42F400621A661B6E03F4C1
:102530000063019300221920019B00F0F3FF192092
:1025400003B05DF804EB01F01FB803B05DF804FBC5
:10255000002C01400368B3F1804F37B505464FD1D9
:1025600003F50433274C9A6DDFF8A4E042F0010232
:102570009A659B6D03F001030193019B04231022D4
:10258000C4E900E30023C4E9022380214FF4007270
:102590004FF40060C4E904122022C4E90602204678
:1025A000236201F039F808B1FFF7F4FE164AAC6275
:1025B0002C63A562154C0423C4E9002380204FF44A
:1025C0000072C4E90402002310214FF4006C2022A1
:1025D0002046C4E90213C4E906C2236201F01CF8D4
:1025E00008B1FFF7D7FE6C62002202211C20A56211
:1025F00000F098FF1C2003B0BDE8304000F0C4BFDD
:1026000003B030BD2009002058000240D808002047
:102610008000024007B50E4B02689A4215D103F5BF
:102620004C4302211A6E42F400321A661B6E03F408
:102630000033019300221920019B00F073FF192041
:1026400003B05DF804EB00F09FBF03B05DF804FB3E
:102650000044014010B5044688B01422002103A8AC
:1026600003F05AFD2368154A934217D1144BDA6CD4
:1026700042F00102DA64DB6C03F001030193019B79
:102680004FF4807303930223049303A901234FF0B3
:102690009040079301F072FA08B010BDB3F1804F7B
:1026A000FAD103F50433DA6C42F00102DA64DB6C30
:1026B00003F001030293029B2A23E3E7002C01406D
:1026C0000010024070B596B004461422002104A800
:1026D00003F022FD3422002109A803F01DFD236828
:1026E0003A4A934232D1012309A8099301F090FF9D
:1026F00008B1FFF74FFE364B36481A6E42F480425F
:102700001A661A6E02F480420092009ADA6C42F065
:102710000202DA64DB6C03F002030193C022019B26
:102720000223CDE9042300240323CDE9064304A9B1
:102730000723089301F022FA25202246214600F0C3
:10274000F1FE252000F020FF16B070BD224A934212
:10275000FAD1022309A8099301F05AFF08B1FFF743
:1027600019FE1B4B9A6D42F400329A659A6D02F481
:1027700000320292029ADA6C42F00102DA64DB6CF7
:1027800003F001030393039B022604230024032583
:10279000CDE9043604A907234FF090400893CDE912
:1027A000064501F0EBF94FF4004304A94FF09040C7
:1027B000CDE90436CDE90645089501F0DFF926207C
:1027C0002246214600F0AEFE2620BBE7003801403D
:1027D00000100240000400480044004008B5FFF724
:1027E00033FAFEE708B5FFF72FFAFEE708B5FFF763
:1027F0002BFAFEE708B5FFF727FAFEE708B5FFF763
:1028000023FAFEE770477047704700F0FBB80000FE
:10281000014800F0F5BF00BF48080020014800F063
:10282000EFBF00BF90080020014800F0E9BF00BFE3
:10283000D8080020014800F0E3BF00BF20090020B5
:1028400008B5044802F072F9BDE80840024802F0F9
:102850006DB900BF68090020B4090020014802F0EA
:1028600065B900BF000A0020014802F03DBF00BF6B
:102870004C0A0020014802F037BF00BFD00A0020F8
:102880000120704708B503F01DFC162303604FF0CC
:10289000FF3008BD08B503F015FC16230360FEE702
:1028A00070B50D4614460E46731B9C4201DC204653
:1028B00070BDAFF3008006F8010BF5E770B50D466B
:1028C00014460E46731B9C4201DC204670BD16F870
:1028D000010BFEF709FEF5E74FF0FF3070474FF4AC
:1028E00000534B6000207047012070470020704764
:1028F0000B4A116810B5034609B90A4911601068FE
:1029000009490A4C0344091B8B4206D903F0DAFB40
:102910000C2303604FF0FF3010BD1360FCE700BFD5
:102920005C0B0020780B002000A0002000080000B5
:10293000034AD2F8883043F47003C2F888307047F5
:1029400000ED00E0DFF834D0FFF7F2FF0C480D494E
:102950000D4A002302E0D458C4500433C4188C42FA
:10296000F9D30A4A0A4C002301E013600432A24260
:10297000FBD303F0ADFBFFF7E7FAFEE700A0002072
:10298000000000207C030020C4BE0008800300205B
:10299000740B0020FEE7000038B50F4B0546187891
:1029A00008B9012038BD0D4A4FF47A73B3FBF0F338
:1029B0001068B0FBF3F000F01BFE04460028F0D1D5
:1029C0000F2DEED8024629464FF0FF3000F0AAFD49
:1029D000034B20461D60E5E7800100207C010020BC
:1029E0008401002010B5032000F08AFD0020FFF7CD
:1029F000D3FF044618B9FFF7CFFC204610BD0124D1
:102A0000FBE70000034A044B11681B780B4413607A
:102A1000704700BF600B002080010020014B186848
:102A2000704700BF600B002038B50446FFF7F6FF83
:102A3000631C1CBF054B1B78054618BFE418FFF745
:102A4000EDFF431BA342FAD338BD00BF8001002035
:102A500030B5CC0D04F004041430C1F304512358F4
:102A600007258D4023EA050302FA01F10B432350A9
:102A700030BD8068C0F380007047000037B5002388
:102A800001930446002800F0C380456D25B9FFF787
:102A90009BFCA56584F85050206883689B0041BF6B
:102AA000836823F0204323F03F0383608368DD00C5
:102AB00040F18E808368D90000F1A180636D43F0FE
:102AC00010036365A36D43F00103A3650121FFF7C4
:102AD000D0FF636D03F010030343636D40F09580F6
:102AE00023F4817343F00203206863658368DA0787
:102AF0000ED4484B9A6803F580739B681343DB0739
:102B000006D4454A6568936823F47C132B4393608D
:102B1000E568636B94F820202B43A5682B43657E02
:102B2000012A43EA453343EA024302BF626A02F1E3
:102B3000FF3243EA4243A26A22B1E56A02F47072AC
:102B40002A431343C568354A2A401343C360FFF73D
:102B500090FF23689A6802F00802024320D1D868E7
:102B600094F83020257E520020F4804042EA8532DD
:102B700020F002000243DA6094F83820012A40D1A4
:102B8000D4E90F25186920F4FF6020F004002A43DF
:102B90000243606C0243A06C024342F001021A61DE
:102BA0002269012A05BF186BE2691A6B02F1FF3234
:102BB00006BF20F00F00024322F00F021A63636D7C
:102BC00023F0030343F001036365084603B030BDFF
:102BD0008368134A23F0104323F03F0343F08053EC
:102BE0008360104B1B68B3FBF2F301335B0001936E
:102BF000019B002B3FF45EAF019B013BF7E70021F7
:102C000065E71A6922F00102C9E743F01003636522
:102C10000121DAE7000004500003045007C0F0FF70
:102C2000400D03007C010020704708B5806AFFF763
:102C3000FBFF08BD836A5A6D12F0500F10B55A6D34
:102C400021D142F400725A651A681168080716D536
:102C5000D16811F4406F0ED1D26812F4005F0AD12E
:102C60005A6D22F480725A655A6DD1045EBF5A6D56
:102C700042F001025A651846FEF7BEF910BDD2684F
:102C800012F0020FEBE7D20603D51846FEF706FA5C
:102C9000F4E7DB6CBDE810405B6B1847806A08B551
:102CA000436D43F040034365836D43F00403836544
:102CB000FEF7F4F908BD0000F7B50023019390F882
:102CC0005030012B05460C4600F0A581012380F809
:102CD00050300068FFF7CDFE002840F096814B6829
:102CE000052B09D8023B032B00F29480DFE803F0A8
:102CF000028B8D8F0C2363606268286823689109BA
:102D000001F00C0100F1300702F01F02CE594FF024
:102D10001F0CC3F3846393400CFA02F226EA02020A
:102D20001343CB51FFF7A5FE01462868826802F0E5
:102D300008020A4324D1A3682168B3F1004F6BD184
:102D4000FFF786FE2A68536943F000435361266902
:102D500028682268C168042E00F1600364D0C1F3C2
:102D6000C1014800616953F826708140AB4802F008
:102D7000F84238401043014341F0004143F8261027
:102D800028688368D90733D4E7682368A44AD0F851
:102D9000B01007F0180CC3F3120622FA0CF21A4016
:102DA00021EA06010A43C0F8B0209E4A97421FD18B
:102DB000002E40F08E809A0E013202F01F07012192
:102DC0009206092F02F0F84201FA07F100F2B380EF
:102DD0000A43002E40F099809B0E013303F01F033D
:102DE00003EB43031B0542EA0301A268FFF730FE31
:102DF00021688D4B194240F0B9800020002385F8EE
:102E0000503003B0F0BD122375E7182373E74FF479
:102E1000807370E706236EE71A46FFF719FE2A68EB
:102E2000536923F0004391E7016E016EC2F312066D
:102E3000C1F38461002E38D1C2F38462914202BF93
:102E4000026E22F0004202665A6822685968C2F394
:102E50001200C1F3846168BBC2F38462914202BF75
:102E60005A6822F000425A609A6822689968C2F350
:102E70001200C1F3846110BBC2F38462914202BFAD
:102E80009A6822F000429A60DA682268D968C2F330
:102E90001200C1F38461B8B9C2F38462914202BFE7
:102EA000DA6822F00042DA606AE792FAA2F2B2FA35
:102EB00082F2C3E792FAA2F2B2FA82F2CEE792FA73
:102EC000A2F2B2FA82F2D9E792FAA2F2B2FA82F24E
:102ED000E4E793FAA3F232B1B2FA82F2013202F0DD
:102EE0001F02092A16D893FAA3F2B2FA82F201322B
:102EF000920602F0F84293FAA3F1B1FA81F101319E
:102F000001F01F070121B94062E793FAA3F3B3FA76
:102F100083F362E793FAA3F2B2FA82F201329206E5
:102F200002F0F84293FAA3F1B1FA81F1013101F014
:102F30001F070121B9400A435EB99E0E013606F013
:102F40001F0606EB46011E39090541F000711143C9
:102F50004BE793FAA3F1B1FA81F1013101F01F03BC
:102F60006FF01D06032111FB0361EDE72F4B304A83
:102F70009868914200F0E0741ED102023FF53DAF27
:102F800029682C4A91427FF438AF9A6822F0E072A7
:102F9000224342F400029A60274B284A1B68B3FB85
:102FA000F2F20C2302FB03330193019B002B3FF44D
:102FB00024AF019B013BF7E7214A914211D110F068
:102FC00080707FF41AAF2968A2F1F74291427FF432
:102FD00014AF9A6822F0E072224342F080729A6045
:102FE0000CE7184A91427FF408AF10F480007FF498
:102FF00004AF29680F4A91427FF4FFAE9A6822F02D
:10300000E072224342F48002E9E76A6D42F0200256
:103010006A651846F2E60220F3E600BF00F0FF03FF
:10302000FFFF070000007F400000088000030450FD
:10303000000052C7000004507C010020400D030036
:10304000000084CB0100008070B504460068FFF7E3
:1030500010FD23689A6802F00802024301D10020A3
:1030600070BDDA6890012BD5208B40F2011290429E
:1030700026D1284A1968490616D540221A6001212E
:103080001846FFF7F6FC58B1226893689E0707D4EC
:10309000936823F0004323F03F0343F01003936051
:1030A00001290FD1042522E0013AE3D1636D43F0F9
:1030B00010036365A36D43F00103A3650120CFE70F
:1030C0000229DDD12268936818070AD593689B0707
:1030D00007D4936823F0004323F03F0343F0200319
:1030E0009360022914D0032914BF04250C25FFF78F
:1030F00095FC064623689B682B42B0D0FFF78EFCF8
:10310000801B0528F6D923689B682B42F2D0CDE7B7
:103110000825ECE7010040A373B500230268019382
:103120009368DD07044602D5002002B070BD9168A7
:10313000204B194209D0636D43F010036365A36D02
:1031400043F00103A3650120EFE7936823F00043F8
:1031500023F03F0343F001039360174B9B68180271
:1031600019D4FFF75BFC154E054622681368DB0790
:10317000DAD49368D9075FBF9368334043F0010303
:103180009360FFF74BFC401B0228EED923681B68B5
:10319000DA07EAD4CFE70A4B0A4A1B68B3FBF2F21C
:1031A0000C2302FB03330193019B002BD9D0019B1D
:1031B000013BF8E73F00008000030450C0FFFF7FA1
:1031C0007C010020400D0300374B2DE9F0410446FF
:1031D00000689B680E461746FFF74BFC00285DD140
:1031E00094F85020012A59D003F01F08B8F1090FB4
:1031F0004FF0010384F850304BD840F2212020FAE0
:1032000008F0C04310EA030543D12046FFF784FFCE
:1032100000283BD1636D216823F4706323F0010320
:1032200043F480736365214B994239D0636D23F475
:1032300080136365636DE06C13F480531CBFA36D52
:1032400023F00603A3651A4BC3621A4B03631A4BA0
:1032500043631C230B60002384F850304B6843F019
:1032600010034B60CB6843F00103CB6032463B4612
:10327000403100F03DFA2268936823F0004323F0C8
:103280003F0343F004039360BDE8F08184F850509D
:10329000FAE7002384F850300120F5E70220F3E735
:1032A000B8F1000FC2D0C5E700030450000104507C
:1032B000352C00082B2C00089D2C0008026838B51E
:1032C000936891680446C80701D4002038BD990767
:1032D000FBD4936803F00D03012B19D1936823F0FD
:1032E000004323F03F0343F0020393600323136082
:1032F000FFF794FB054623689B68DB07E5D5FFF7DE
:103300008DFB401B0228F6D923689B68DA07F2D5AB
:10331000636D43F010036365A36D43F00103A36580
:103320000120D3E738B590F85030012B054635D051
:10333000012380F850300321FFF786FE0446E0B9F0
:103340002A68E86CD36823F00103D36090F8253035
:10335000022B07D100F00BFA044618B16B6D43F055
:1033600040036B652A68536823F0100353602846B6
:1033700044B9FFF7A3FF044638B1002385F8503065
:10338000204638BDFFF79AFFF7E76B6D23F48853AB
:1033900023F0010343F001036B65EEE70224EFE73E
:1033A0008068C0F38000704773B50023019390F8E4
:1033B0005030012B04460D463ED0012380F850309A
:1033C000FFF77CFF002833D1626D266822F4885213
:1033D00022F0020242F002026265B36823F0404329
:1033E00023F03F0305F080452B4343F00043B360D7
:1033F000B368002B12DA019B01330193019BB3F5F3
:10340000912FF5D3636D23F0120343F0100363652E
:10341000002384F85030012002B070BD636D23F0AA
:10342000030343F001036365002384F85030F3E79E
:10343000636D43F01003F6E70220EDE7F0B590F876
:103440005030012B9BB0024652D0012380F85030FF
:103450001768284C0020A7421690179008D0516D8D
:1034600082F8500041F02001516518461BB0F0BDB4
:10347000214E3046FFF794FF04461068FFF790FF97
:10348000204330D11D4C0D68A36823F46043E5B19F
:103490004868034392F8300043EA4033A360B868B9
:1034A000B368034313F0010304D00020002382F823
:1034B0005030DBE78968A0680D4320F4716121F08A
:1034C0000F010D43A5601846F0E7A360B868B36824
:1034D000034313F00103E8D1A16821F4716121F0E5
:1034E0000F01A160EFE7516D41F020015165EAE75E
:1034F0000220BBE700000450000104500003045008
:103500000749CA6822F4E0620302120403F4E0638C
:10351000120C134343F0BF6343F40033CB60704796
:1035200000ED00E0164B30B5DC68C4F30224C4F1B2
:103530000705231D042D28BF0425062B4FF0FF335C
:103540008CBF033C002403FA05F521EA0501A340E2
:1035500022EA0302A140002841EA0203ACBF00F1C5
:103560006040084A4FEA0313B8BF00F00F00DBB217
:10357000AABF00F56140135480F8003330BD00BF8E
:1035800000ED00E014ED00E0002808DB0123420913
:1035900000F01F0003FA00F0014B43F822007047CF
:1035A00000E100E000280DDB4309012200F01F00CC
:1035B00002FA00F02033044A42F82300BFF34F8F91
:1035C000BFF36F8F704700BF00E100E0BFF34F8F84
:1035D0000549064BCA6802F4E0621343CB60BFF3AF
:1035E0004F8F00BFFDE700BF00ED00E00400FA05CB
:1035F0000138B0F1807F0BD24FF0E023054A5861CB
:10360000F02182F823100020072298611A61704788
:103610000120704700ED00E030B500285BD0016864
:103620002E4B99424FF0140442D82D4A0A44B2FB63
:10363000F4F292004264A3F207430364022380F889
:103640002530D0E9024305690A6823432B434569C5
:103650002B4385692B43C5692B43056A22F4FF423E
:1036600022F070022B431343B4F5804F0B6016D049
:10367000446C016C04F01C0244680F239340944096
:10368000184A91426FEA03031AD1D1F8A8201340D7
:10369000C1F8A830D1F8A8301C43C1F8A8400023D5
:1036A0000122C36380F8243080F82520184630BDFD
:1036B0000D4B0B44B3FBF4F39B0043640B4BBCE793
:1036C000D2F8A8140B40C2F8A834D2F8A8341C438E
:1036D000C2F8A844E3E70120E9E700BF070402407D
:1036E000F8FFFDBF00000240F8FBFDBF00040240F0
:1036F000F0B590F82440012C37D0012480F8244004
:1037000090F82540012CE5B24FF000064FF002047E
:1037100029D180F825400468C663266826F0010692
:103720002660D0E9106707F01C07BD407560636034
:103730008368102B036B0BBFA260A160E160E260A5
:103740004BB1236843F00E032360236843F0010369
:1037500023600020F0BD236823F004032360236866
:1037600043F00A03F0E780F824600220F2E790F8C3
:103770002530022B06D00423C363002380F82430B5
:103780000120704703681A6822F00E021A601A6856
:1037900022F001021A60D0E91013012203F01C0389
:1037A00002FA03F34B60002380F8252080F82430D0
:1037B0001846704710B590F82520022A03D004223D
:1037C000C263012010BD0268836B116821F00E01F5
:1037D0001160116821F001011160D0E9104201214E
:1037E00002F01C0201FA02F26260002480F8251047
:1037F00080F8244013B198472046E3E71846E1E7F4
:10380000016C426C036870B402F01C020E681D6803
:103810000424944034420ED015F0040F0BD01A68E3
:1038200092065EBF1A6822F004021A60036B4C60B5
:1038300073B370BC184702249440344212D015F080
:10384000020F0FD01A68950606D41A6822F00A02F1
:103850001A60012380F8253000234C6080F8243062
:10386000C36AE5E708249440344211D02C070FD5F1
:103870001C6824F00E041C60012303FA02F24A6063
:10388000C36380F82530002380F82430436BCFE7F2
:1038900070BC7047094A536943F4802310B55361E3
:1038A000EFF3108272B60023CC58C4500433B3F542
:1038B000807FF9D182F3108810BD00BF0020024044
:1038C000064B5A69002ABFBF054A9A6002F1883246
:1038D0009A60BABF5869C00F0020704700200240AC
:1038E00023016745034A536943F0004353610020B5
:1038F000704700BF00200240014B5868704700BF6E
:103900008801002070B50546FFF788F8104C064680
:103910002369DB030AD420690E4A02400FD00E4906
:103920004B6813434B600120226170BD6A1CEFD0CD
:10393000FFF774F8801BA842EAD30320F5E720695B
:1039400010F00100F1D0012323611046EDE700BF24
:1039500000200240FAC30200880100202DE9F8434C
:10396000254C99462378012B06460F46904641D0B8
:1039700001234CF250302370FFF7C4FF054630BBE3
:1039800060601E48026812F4806217BF03682277E5
:1039900023F4806303601CBF02232377E6B94369E5
:1039A00043F001034361C7F80080BFF36F8F012626
:1039B000C7F804904CF25030FFF7A4FF054626B13B
:1039C0000E4A536923EA0606566100F03DF80023CB
:1039D00023702846BDE8F883731E012B01D9002609
:1039E000E8E741463846FFF755FF022EF7D14FF47E
:1039F0008026DFE70225ECE7880100200020024056
:103A0000064B10F0010F1EBF5A6942F004025A61C2
:103A10005A6942F480325A61704700BF0020024068
:103A2000084B5A69C00022F4FC7200F4FF60104396
:103A300058615A6942F002025A615A6942F480326E
:103A40005A617047002002401548037FDAB203F044
:103A5000FD03012B10D1134B196821F4007119607B
:103A6000196841F400611960196821F40061196056
:103A7000196841F400711960931E012B0CD8094B91
:103A80001A6842F480521A601A6822F480521A604E
:103A90001A6842F480621A6000230377704700BFFF
:103AA00088010020002002402DE9F843314D2B7899
:103AB000012B064688465AD001274CF250302F7011
:103AC000FFF720FF044610BB2B4B68601A6812F406
:103AD000007F1A6820D0510506D51A6822F480624A
:103AE0001A6003232B7700E02F773368012B1DD159
:103AF0007068FFF785FF4CF25030FFF703FF1E4A56
:103B0000536923F0040304465361FFF79DFF00232C
:103B10002B702046BDE8F883520505D51A6822F4BB
:103B200080621A600223DDE72877DEE74FF0FF337B
:103B3000C8F80030B768DFF84090D6E90232134485
:103B4000BB42E2D971683846FFF76AFF4CF2503049
:103B5000FFF7D8FED9F8143023F4FD73C9F81430F8
:103B600018B1C8F800700446CFE70137E5E7022432
:103B7000CFE700BF88010020002002402DE9F74F69
:103B8000DFF87091594C00230A6832FA03F502D12C
:103B900003B0BDE8F08F012505FA03F818EA020228
:103BA00000F09C804E68032706F003054FEA430EA1
:103BB00007FA0EFC6F1E012F6FEA0C0C34D88768D1
:103BC00007EA0C0ACF6807FA0EF747EA0A07876088
:103BD000476827EA0808C6F300179F4047EA080726
:103BE0004760C76807EA0C088F6807FA0EF747EACC
:103BF0000807022DC76019D14FEAD30800EB8808E7
:103C000003F0070AD8F820704FEA8A0A4FF00F0B2A
:103C10000BFA0AFB27EA0B0B0F6907FA0AF747EAC8
:103C20000B07C8F8207001E0032DDAD1076805FA08
:103C30000EF507EA0C072F4316F4403F07604DD0FE
:103C4000D9F8605045F00105C9F86050D9F86050C6
:103C500023F0030707F1804705F0010507F58037DA
:103C6000019503F0030C019DBD684FEA8C0C4FF0E9
:103C70000F0E0EFA0CFEB0F1904F25EA0E0E2FD06B
:103C80001B4DA8422ED005F58065A8422CD005F525
:103C90008065A8420CBF0325072505FA0CF545EA07
:103CA0000E05BD60A568D74316F4801F0CBF3D40CC
:103CB0001543A560E56816F4001F0CBF3D40154391
:103CC000E560656816F4003F0CBF3D401543656034
:103CD0002568F60354BF3D4015432560013353E783
:103CE0000025DAE70125D8E70225D6E700040140E0
:103CF00000040048001002400369194214BF01206B
:103D0000002070470AB181617047816270470000EE
:103D1000024A136843F480731360704700700040D8
:103D2000024B186800F4C060704700BF007000408C
:103D3000174A1368B0F5007F03F4C0631DD1B3F5D3
:103D4000007F01D100207047136823F4C06343F45F
:103D5000007313600F4B1B6832214B430E49B3FBBA
:103D6000F1F301335169490500D523B953695B0566
:103D7000E8D503207047013BF4E7B3F5806F1FBF20
:103D8000136823F4C06343F480631360DAE700BF71
:103D9000007000407C01002040420F0037B51E4DEE
:103DA000AB6DDA00044618D5FFF7BAFFB0F5007F17
:103DB00023D1802C29D9A02C8CBF02200120174AA6
:103DC000136823F0070303431360136803F007032A
:103DD000181A18BF012003B030BDAB6D43F08053FB
:103DE000AB65AB6D03F080530193019BFFF798FF28
:103DF000AB6D23F08053AB65D8E7802C07D808D093
:103E0000A4F1700358425841D9E70020D7E70320B6
:103E1000D5E70220D3E700BF001002400020024097
:103E2000224B9A68D96812F00C0205D00C2A15D1E1
:103E300001F00301012918D119681D48090755BF70
:103E4000D3F894101968C1F30321C1F3031150F89A
:103E500021004AB30C2A09D000207047042A22D03E
:103E6000082A144818BF002070470020DA6802F0C2
:103E70000302022A15D00F49032A08BF0846D96851
:103E8000DA68C2F306224243D868C0F34160C1F346
:103E90000211013001314000B2FBF1F2B2FBF0F04F
:103EA00070470548EBE70448704700BF0010024028
:103EB000B0B9000800127A000024F4002DE9F7439D
:103EC000054618B9012003B0BDE8F083944C03689F
:103ED000A668E768DB0606F00C0607F003073DD589
:103EE0001EB10C2E6AD1012F68D12368980702D524
:103EF000EB69002BE6D02368686A190756BFD4F82F
:103F0000943023681B0903F0F00398423FD9FFF770
:103F100045FF0028D6D1236843F0080323602368B7
:103F20006A6A23F0F0031343236063682A6A23F468
:103F30007F4343EA02236360FFF772FFA368794A75
:103F4000C3F30313D35C03F01F03D840764B186010
:103F5000764B1868FEF720FD0028B4D12B68D807EF
:103F600063D42B68990700F1A2802B68180700F131
:103F7000DF802B68590700F12F812B68990600F12B
:103F8000AB81EB6A002B40F0D18100209BE72368D6
:103F900043F008032360236823F0F0030343236006
:103FA00063682A6A23F47F4343EA02236360002E96
:103FB000C2D1FFF7F3FE0028BED083E7EB691BB345
:103FC000236843F001032360FEF728FD8046236841
:103FD0009A0711D5236843F00803236023686A6AAF
:103FE00023F0F0031343236063682A6A23F47F43BA
:103FF00043EA02236360B1E7FEF710FDA0EB08007F
:104000000228E4D903205EE7236823F0010323603C
:10401000FEF704FD804623689B079FD5FEF7FEFC54
:10402000A0EB08000228F6D9ECE7082E03D00C2EEE
:1040300008D1032F06D123689A0392D56B68002B11
:104040008FD13FE76B68B3F5803F10D1236843F40D
:1040500080332360FEF7E2FC804623689B0380D414
:10406000FEF7DCFCA0EB08006428F6D9CAE7B3F53C
:10407000A02F04D1236843F480232360E6E722685D
:1040800022F480322260226822F480222260002BF7
:10409000E0D1FEF7C3FC8046236898037FF561AF4B
:1040A000FEF7BCFCA0EB08006428F5D9AAE7042EB3
:1040B00003D00C2E10D1022F0ED12368590503D541
:1040C000EB68002B3FF4FEAE63682A6923F0FE43E1
:1040D00043EA0263636048E7EB687BB1236843F41B
:1040E00080732360FEF79AFC074623685A05EBD4D9
:1040F000FEF794FCC01B0228F7D983E7236823F45A
:1041000080732360FEF78AFC074623685B057FF512
:104110002CAFFEF783FCC01B0228F6D972E700BF64
:104120000010024098B900087C01002084010020A2
:104130006B69002B3CD0D4F89430A96903F01002CD
:1041400091420ED003F00302022A3FF4BBAEDA071D
:104150001BD4D4F89430AA6923F010031343C4F895
:104160009430D4F8943043F00103C4F89430FEF74F
:1041700055FC0746D4F8943098073FF5FAAEFEF7A1
:104180004DFCC01B1128F5D93CE7D4F8943023F03E
:104190000103C4F89430FEF741FC0746D4F894308C
:1041A0009B07D6D5FEF73AFCC01B1128F6D929E7A4
:1041B000D4F8943023F00103C4F89430FEF72EFCB9
:1041C0000746D4F8943099077FF5D3AEFEF726FC66
:1041D000C01B1128F5D915E7A36DDA0030D4A36D03
:1041E00043F08053A365A36D03F080530193019BBB
:1041F0000127DFF87082D8F80030DB0522D5AA68E5
:10420000D00733D4D4F8903023F00103C4F89030B1
:10421000D4F8903023F00403C4F89030002A3CD145
:10422000FEF7FCFB41F288398046D4F890309807BD
:104230004BD4D4F8903023F08003C4F8903035E0AC
:104240000027D6E7D8F8003043F48073C8F8003070
:10425000FEF7E4FB8146D8F80030D905CFD4FEF74D
:10426000DDFBA0EB09000228F5D9CBE6D4F89030AD
:1042700002F0800123F080030B43C4F89030D4F89F
:104280009030520742BF43F00403C4F89030D4F892
:10429000903043F00103C4F89030FEF7BFFB41F2C9
:1042A00088398046D4F890309B0707D5002F3FF41B
:1042B00064AEA36D23F08053A3655EE6FEF7AEFB0C
:1042C000A0EB08004845EDD99CE6FEF7A7FBA0EB64
:1042D00008004845A9D995E6AB6A9BB1D4F8983057
:1042E00043F00103C4F89830FEF798FB0746D4F872
:1042F00098309A073FF545AEFEF790FBC01B0228A9
:10430000F5D97FE6D4F8983023F00103C4F898304B
:10431000FEF784FB0746D4F898309B077FF531AE53
:10432000FEF77CFBC01B0228F5D96BE6022B7AD185
:10433000E3682A6B03F0030191421CD1696B03F01F
:1043400070020139B2EB011F15D1A96B03F4FE42D3
:10435000B2EB012F0FD1EA6B520803F4C001013A0E
:10436000B1EB425F07D12A6C520803F0C063013AF7
:10437000B3EB426F3ED00C2E3FF4A4AD236823F084
:1043800080732360FEF74AFB0646236898012BD40E
:10439000E268334B13402A6B1343AA6B43EA0223B0
:1043A0006A6B013A43EA0213EA6B5208013A43EAA4
:1043B00042532A6C5208013A43EA4263E36023689D
:1043C00043F080732360E36843F08073E360FEF79B
:1043D00025FB0546236899013FF5D7ADFEF71EFB87
:1043E000401B0228F6D90DE6FEF718FB801B0228B9
:1043F000CBD907E623689A013FF5C7AD236843F0A0
:1044000080732360E36843F08073E360FEF706FB8C
:10441000054623689B013FF5B8ADFEF7FFFA401B48
:104420000228F6D9EEE50C2E3FF44CAD236823F0BC
:1044300080732360FEF7F2FA0546236813F00073D9
:1044400007D1E26822F0887222F00302E260184687
:1044500039E5FEF7E3FA401B0228EED9D2E500BFAA
:104460008C809FF9007000402DE9F0410D46044614
:1044700010B90120BDE8F0814B4A136803F007032F
:104480008B422CD32068860734D4C1073FD42168DF
:104490008A0768D4444A136803F00703AB426FD815
:1044A00011F0040F414D77D10B0706D5AB68226997
:1044B00023F4605343EAC203AB60FFF7B1FCAB687F
:1044C0003B4AC3F30313BDE8F041D35C03F01F0381
:1044D000D840384B1860384B1868FEF75DBA13683F
:1044E00023F007030B431360136803F007038B42A9
:1044F000BFD1C7E72D4AA668916801F0F0018E424E
:1045000081BF936823F0F00333439360BDE7626893
:10451000264E032A33681AD113F0007FA9D0B3685E
:1045200023F003031343B360FEF778FA41F28838AF
:104530000746B368626803F00C03B3EB820FA6D0A2
:10454000FEF76CFAC01B4045F3D9032092E7022A1C
:1045500002D113F4003FE1E712B913F0020FDDE7D7
:1045600013F4806FDAE7114AA668906800F0F00053
:1045700086423FBF936823F0F0033343936089E79B
:10458000136823F007032B431360136803F007033A
:10459000AB427FF46EAF83E7AB68E26823F4E0637D
:1045A0001343AB6080E700BF0020024000100240D0
:1045B00098B900087C01002084010020014B186894
:1045C000704700BF7C010020054B064A9B68C3F37F
:1045D0000223D35C044A106803F01F03D8407047DD
:1045E00000100240A8B900087C010020054B064AD3
:1045F0009B68C3F3C223D35C044A106803F01F0313
:10460000D840704700100240A8B900087C01002083
:104610002DE9F3410446006810F4003039D0754D9F
:10462000AB6DD80027D4AB6D43F08053AB65AB6D59
:1046300003F080530193019B01266F4F3B6843F4C5
:1046400080733B60FEF7EAF980463B68D90514D5D4
:10465000D5F8903013F4407303D0226B934240F0AE
:10466000A380D5F89030226B23F440731343C5F830
:104670009030002008E00026DFE7FEF7CFF9A0EB3E
:1046800008000228E1D903201EB1AB6D23F080534E
:10469000AB652368DF0708D556496568D1F88820DF
:1046A00022F003022A43C1F888209E0708D5514909
:1046B000A568D1F8882022F00C022A43C1F888208E
:1046C0005D0708D54B49E568D1F8882022F0300213
:1046D0002A43C1F88820990608D546492569D1F8AA
:1046E000882022F440622A43C1F888209A0508D520
:1046F0004049256AD1F8882022F440222A43C1F893
:1047000088205F0508D53B49656AD1F8882022F4E6
:1047100040122A43C1F888205E0608D535496569EC
:10472000D1F8882022F440522A43C1F888201D067F
:1047300008D53049A569D1F8882022F440422A439F
:10474000C1F88820D90508D52A49E569D1F888201B
:1047500022F440322A43C1F888209A040FD5254913
:10476000A56AD1F8882022F040622A43C1F8882047
:10477000B5F1006F02BFCA6842F48012CA605B03E1
:104780000FD51C4AE16AD2F8883023F040630B430E
:10479000B1F1006FC2F8883003D1D36843F48013BD
:1047A000D36002B0BDE8F081D5F89020D5F8903004
:1047B00043F48033C5F89030D5F8903022F440713E
:1047C00023F48033D207C5F89030C5F890107FF5F8
:1047D00048AFFEF723F941F288380746D5F8903004
:1047E0009B073FF53EAFFEF719F9C01B4045F5D9D1
:1047F00049E700BF0010024000700040024A136801
:1048000043F004031360704700100240036A23F072
:1048100001030362036A70B5446882690D6822F47B
:10482000803222F073022A438D6823F002032B4367
:10483000124DA84206D0124EB04203D006F5806653
:10484000B04214D1CE6823F008033343A84223F0CA
:10485000040306D00A4DA84203D005F58065A8429E
:1048600005D124F44075D1E9054634432C43446016
:1048700082614A684263036270BD00BF002C014040
:1048800000400140036A23F480730362036A4268B4
:1048900070B5C4690D6824F4803424F073042C438B
:1048A0008D6823F4007343EA05230F4DA8420ED10F
:1048B000CD6823F4006343EA052323F48063D1E940
:1048C000055622F44052354342EA051205E0074DF1
:1048D000A842F4D0064DA842F1D042604A68C461B3
:1048E000C263036270BD00BF002C01400040014064
:1048F00000440140036A23F480530362026A30B526
:104900004468C3690D6823F0807323F4E64343EAE7
:1049100005238D6822F4005242EA05320A4DA8426E
:1049200007D005F5A055A84203D005F58065A8423B
:1049300004D14D6924F4804444EA85144460C36181
:104940004B680364026230BD002C0140036A23F40B
:1049500080330362026A30B54468436D0D6823F406
:10496000803323F070032B438D6822F4003242EA37
:1049700005420B4DA84207D005F5A055A84203D02B
:1049800005F58065A84204D14D6924F4803444EAD9
:104990000524446043654B688365026230BD00BFF7
:1049A000002C0140036A23F480130362026A30B5CD
:1049B0004468436D0D6823F0807323F4E04343EAB9
:1049C00005238D6822F4001242EA05520A4DA842DE
:1049D00007D005F5A055A84203D005F58065A8428B
:1049E00004D14D6924F4802444EA8524446043655D
:1049F0004B68C365026230BD002C014090F83D3029
:104A0000012B1FD1022380F83D300368DA6842F0A1
:104A10000102DA600C4A934206D0B3F1804F03D012
:104A200002F5A052934207D19968084A0A40062A23
:104A300006D0B2F5803F03D01A6842F001021A6036
:104A40000020704701207047002C01400700010042
:104A50000368DA6822F00102DA60196A41F2111281
:104A6000114208D1196A40F24442114202BF1A6849
:104A700022F001021A60012380F83D3000207047C7
:104A800070477047704710B5846A626A82420BD1E2
:104A900001232377D2690AB984F83E302046FFF714
:104AA000F1FF0023237710BDA36A834208D10222BD
:104AB0002277DB69002BF1D1012384F83F30EDE749
:104AC000E36A834208D104222277DB69002BE5D117
:104AD000012384F84030E1E7236B8342DED10822D2
:104AE0002277DB69002BD9D1012384F84130D5E747
:104AF000704710B5846A636A834207D10123237724
:104B00002046FFF7F5FF0023237710BDA36A8342F9
:104B100001D10223F3E7E36A834201D10423EEE7E4
:104B2000236B8342ECD10823E9E7704703681A69D5
:104B3000910710B504460FD5DA6892070CD56FF0CF
:104B400002021A61012202779B69990700F08580B1
:104B5000FFF797FF0023237723681A69520710D5C0
:104B6000DA6850070DD56FF004021A61022222772D
:104B70009B6913F4407F204675D0FFF782FF002326
:104B8000237723681A6911070FD5DA6812070CD545
:104B90006FF008021A6104222277DB699B07204626
:104BA00067D0FFF76EFF0023237723681A69D006CA
:104BB00010D5DA68D1060DD56FF010021A610822FF
:104BC0002277DB6913F4407F204658D0FFF759FF66
:104BD0000023237723681A69D20708D5DA68D0073B
:104BE00005D56FF001021A612046FDF7EDF8236844
:104BF0001A69110608D5DA68120605D56FF0800229
:104C00001A61204600F0C9FC23681A69D00508D54E
:104C1000DA68110605D56FF480721A61204600F03B
:104C2000BDFC23681A69520608D5DA68500605D516
:104C30006FF040021A612046FFF777FF23681A6978
:104C4000910622D5DA6892061FD56FF02002204621
:104C50001A61BDE8104000F09FBCFFF711FF20462D
:104C6000FFF710FF76E7FFF70BFF2046FFF70AFF7D
:104C700085E7FFF705FF2046FFF704FF93E7FFF7FF
:104C8000FFFE2046FFF7FEFEA2E710BD704710B5FD
:104C9000846A636A834209D10123237784F83E3012
:104CA0002046FFF7F3FF0023237710BDA36A83425A
:104CB00005D102232377012384F83F30F0E7E36A2C
:104CC00083424FF0010304D10422227784F840305C
:104CD000E6E7226B824203BF0822227784F8413044
:104CE00084F83D30DCE700001A4A0368904210B5B2
:104CF00002D0B0F1804F09D14C6823F0700390428C
:104D000043EA040309D0B0F1804F06D0124A904222
:104D100003D002F58062904203D1CA6823F4407345
:104D200013434A6923F08003134303608B68C36213
:104D30000B688362074B984207D003F5A053984253
:104D400003D003F58063984201D10B69036301230B
:104D5000436110BD002C01400040014010B50446E5
:104D600050B390F83D3003F0FF021BB980F83C20AF
:104D7000FDF750FC0223206884F83D30211DFFF729
:104D8000B3FF012384F84830002084F83E3084F8D3
:104D90003F3084F8403084F8413084F8423084F861
:104DA000433084F8443084F8453084F8463084F841
:104DB000473084F83D3010BD0120FCE710B50446B3
:104DC00050B390F83D3003F0FF021BB980F83C204F
:104DD000FDF7C0FB0223206884F83D30211DFFF75A
:104DE00083FF012384F84830002084F83E3084F8A3
:104DF0003F3084F8403084F8413084F8423084F801
:104E0000433084F8443084F8453084F8463084F8E0
:104E1000473084F83D3010BD0120FCE710B5044652
:104E200050B390F83D3003F0FF021BB980F83C20EE
:104E3000FDF770FB0223206884F83D30211DFFF749
:104E400053FF012384F84830002084F83E3084F872
:104E50003F3084F8403084F8413084F8423084F8A0
:104E6000433084F8443084F8453084F8463084F880
:104E7000473084F83D3010BD0120FCE7036A23F081
:104E800010030362036A426870B584690D6824F0F8
:104E9000807424F4E64444EA05248D6823F020035A
:104EA00043EA05130E4DA8420ED1CD6823F08003CE
:104EB00043EA051323F04003D1E9055622F440628A
:104EC000354342EA850205E0064DA842F4D0064D7E
:104ED000A842F1D042604A6884618263036270BD77
:104EE000002C0140004001400044014038B590F8DA
:104EF0003C30012B05462BD001200C2A85F83C00C4
:104F00001ED008D8042A13D0082A15D05AB100237D
:104F100085F83C3038BD102A16D0142AF7D12868FD
:104F2000FFF740FD02E02868FFF770FC0020EEE785
:104F30002868FFF7A3FFF9E72868FFF7A3FCF5E768
:104F40002868FFF7D7FCF1E72868FFF7FFFCEDE7DB
:104F50000220DFE770B590F83C30012B054679D090
:104F600001200C2A85F83C0052D008D8042A2DD004
:104F7000082A3CD0C2B1002385F83C3070BD102A0D
:104F800057D0142AF7D12868FFF70CFD2B68096960
:104F90005A6D42F400625A655A6D22F480625A6575
:104FA0005A6D42EA012253E02868FFF72FFC2B6874
:104FB00009699A6942F008029A619A6922F004022A
:104FC0009A619A690A439A610020D4E72868FFF73A
:104FD00055FF2B6809699A6942F400629A619A69DF
:104FE00022F480629A619A6942EA0122EBE728681A
:104FF000FFF748FC2B680969DA6942F00802DA61B8
:10500000DA6922F00402DA61DA690A43DA61DBE77D
:105010002868FFF76FFC2B680969DA6942F40062BF
:10502000DA61DA6922F48062DA61DA6942EA01223D
:10503000ECE72868FFF78AFC2B6809695A6D42F093
:1050400008025A655A6D22F004025A655A6D0A43E5
:105050005A65B9E7022091E7036A01F01F0110B514
:1050600001248C4023EA04030362036A8A401A4342
:10507000026210BD10B5044629B990F83E30012BEC
:1050800027D0012043E0042907D190F83F30012BBD
:10509000F7D1022380F83F301EE008290DD190F8A7
:1050A0004030013B18BF0123002BEAD108294FF003
:1050B00002032DD184F840300EE00C2902D190F883
:1050C0004130EEE710290CBF90F8423090F84330A1
:1050D000E7E7022380F83E3020680122FFF7BCFF9B
:1050E00023681A498B4206D0194A934203D002F52D
:1050F0008062934227D15A6C8B4242F400425A6438
:1051000012D19968134A0A40062A14D1002010BD12
:105110000C2902D184F84130DEE710290CBF84F855
:10512000423084F84330D7E7B3F1804FE9D0084AE2
:10513000934203D1E5E7B2F5803FE7D01A6842F029
:1051400001021A60E2E7B3F1804FF2E7002C014060
:105150000040014007000100FFF78CBF38B504464E
:10516000002200680D46FFF777FF2368214A93422B
:1051700007D002F5A052934203D002F58062934219
:105180000DD1196A41F21112114208D1196A40F287
:105190004442114202BF5A6C22F400425A64196A16
:1051A00041F21112114208D1196A40F244421142EF
:1051B00002BF1A6822F001021A6001231DB984F8A7
:1051C0003E30002038BD042D02D184F83F30F8E78E
:1051D000082D02D184F84030F3E70C2D02D184F879
:1051E0004130EEE7102D0CBF84F8423084F8433094
:1051F000E7E700BF002C0140FFF7B0BF38B50D4610
:105200000446114655B990F83E00A0F1020CDCF1BD
:10521000000040EB0C00C0B102201EE0042D02D1C2
:1052200090F83F00F1E7082D02D190F84000ECE73C
:105230000C2D02D190F84100E7E7102D02D190F833
:105240004200E2E790F84300DFE73DB994F83E20E2
:10525000501E42424241C2B9012038BD042D02D144
:1052600094F83F20F4E7082D02D194F84020EFE7AE
:105270000C2D02D194F84120EAE7102D0CBF94F8D0
:10528000422094F84320012AE6D10029E4D0002BE3
:10529000E2D00222002D30D1606A84F83E20454AD7
:1052A000C262454A0263454A426322683432FEF7CD
:1052B0001FFA0028D0D12268D36843F40073D3606A
:1052C000294620680122FFF7C7FE23683C498B422C
:1052D00006D03C4A934203D002F58062934266D1E5
:1052E0005A6C8B4242F400425A6451D19968364A52
:1052F0000A40062A53D10020AFE7042D13D1A06A3B
:1053000084F83F202B4AC2622B4A02632B4A426335
:1053100022683832FEF7ECF900289DD12268D36864
:1053200043F48063CBE7082D13D1E06A84F8402072
:10533000204AC262204A0263204A426322683C3209
:10534000FEF7D6F9002887D12268D36843F40063BA
:10535000B5E70C2D14D1206B84F84120154AC262A8
:10536000154A0263154A426322684032FEF7C0F9CB
:1053700000287FF471AF2268D36843F480539EE71E
:10538000102D02D184F8422066E784F8432063E7B9
:10539000B3F1804FAAD00B4A934203D1A6E7B2F5EE
:1053A000803FA8D01A6842F001021A60A3E7B3F167
:1053B000804FF2E7874A0008F34A00088F4C000844
:1053C000002C01400040014007000100082938B5C9
:1053D00005460C4650D004D861B1042945D00120BF
:1053E00038BD0C29FBD10268006BD36823F48053CD
:1053F000D36005E00268406AD36823F40073D36089
:10540000FEF7D8F9002228682146FFF725FE2B6811
:10541000284A934207D002F5A052934203D002F5E6
:10542000806293420DD1196A41F21112114208D1E2
:10543000196A40F24442114202BF5A6C22F40042FF
:105440005A64196A41F21112114208D1196A40F2E4
:105450004442114202BF1A6822F001021A6001237D
:105460008CB985F83E300020BAE70268806AD368BC
:1054700023F48063D360C3E70268C06AD36823F46F
:105480000063D360BCE7042C02D185F83F30EAE723
:10549000082C02D185F84030E5E70C2C02D185F8C4
:1054A0004130E0E7102C0CBF85F8423085F84330DE
:1054B000D9E700BF002C014070B590F83C30012BBB
:1054C0004FF0020323D00268124D80F83D3053683C
:1054D0009468AA4202BF4E6823F4700333430E68F7
:1054E00023F070033343AA42536005D0B2F1804FDA
:1054F00002D0094B9A4204D1896824F080030B43FF
:105500009360012380F83D30002380F83C3018463A
:1055100070BD00BF002C01400040014010B590F864
:105520003C30012B34D0CB688A681A4C23F440738A
:1055300013434A6823F4806313430A6823F4006327
:1055400013430A6923F4805313434A6923F4005335
:1055500013438A6A23F4804313438A6923F4702334
:1055600043EA02430268A2420CD14C6A23F470035E
:1055700043EA0453CC69096A23F08073234323F080
:1055800000730B435364002380F83C30184610BD71
:105590000220FCE7002C014070477047704702680A
:1055A00052E8003F23F4907342E80031026800297A
:1055B000F5D102F1080353E8003F23F0010302F1A3
:1055C000080C4CE800310029F3D1036E012B07D100
:1055D00052E8003F23F0100342E800310029F7D1E0
:1055E0002023C367002303664366704770477047F4
:1055F00008B5806A0023A0F85A30A0F85230FFF7AF
:10560000F6FF08BD7047000010B50446226852E856
:10561000003F23F4907342E8003123680029F5D15C
:1056200003F1080252E8002F22F0010203F1080002
:1056300040E800210029F3D1226E012A07D153E866
:10564000002F22F0100243E800210029F7D19A68C8
:1056500012F0400228D003F1080252E8002F22F095
:10566000400203F1080040E800210029F3D1206F37
:1056700048B1124B8363FEF79DF810B1206F836B26
:105680009847002010BD0F22A4F85A0060651A62E6
:105690001A8B92B242F008021A832023E367206635
:1056A0002046FFF7AFFFECE70F21A4F85A20626510
:1056B00019622023E3672266F2E700BFC1560008A3
:1056C000806A026808B500210F23A0F85A101362FF
:1056D000138B9BB243F0080313832023C367016637
:1056E000FFF790FF08BD70470368DA69196870B565
:1056F00040F60F0632429D6804460BD1960640F1F3
:1057000088808E0640F18580436E002B7BD0BDE8FB
:1057100070401847954E05F001000E40064378D0C2
:10572000D50709D5CE0507D501251D62D4F88050CF
:1057300045F00105C4F88050950708D538B1022519
:105740001D62D4F8805045F00405C4F88050560717
:1057500008D538B104251D62D4F8805045F0020503
:10576000C4F8805015070BD501F02005284307D059
:1057700008201862D4F8800040F00800C4F88000C7
:1057800016050AD54D0108D54FF400601862D4F80B
:10579000803043F02003C4F88030D4F88030002BF0
:1057A00031D0900605D58A0603D5636E0BB120462D
:1057B00098472368D4F880509B6805F0280503F0CB
:1057C00040031D4320461FD0FFF7E9FE226893687F
:1057D0005B0615D502F1080353E8003F23F04003B0
:1057E00002F1080040E800310029F3D1206F38B100
:1057F0005F4B8363FDF7DEFF28B1206F836B86E785
:105800002046FFF7F4FE70BDFFF7F1FEC4F88050AC
:10581000F9E7206E01287ED1D6067CD5C8067AD558
:1058200010221A629A68510646D5226F11684A689A
:1058300092B2002AE7D0B4F858009042E3D9A4F815
:105840005A200A6892062DD453E8002F22F4807261
:1058500043E800210029F7D103F1080252E8002FA4
:1058600022F0010203F1080040E800210029F3D1F1
:1058700003F1080252E8002F22F0400203F1080071
:1058800040E800210029F3D12022E267216653E895
:10589000002F22F0100243E800210029F7D1206FE9
:1058A000FDF765FFB4F85A30B4F85810C91A89B238
:1058B0002046FFF718FFA6E7B4F85A108AB2B4F8EA
:1058C0005A1089B200299ED0B4F85810891A89B2AA
:1058D000002998D053E8002F22F4907243E800206A
:1058E0000028F7D103F1080252E8002F22F001024C
:1058F00003F1080545E800200028F3D12022E267E3
:105900006066206653E8002F22F0100243E8002072
:105910000028F7D1CCE7D60209D5680207D54FF4A5
:10592000801220461A62BDE8704000F0C9BB16061E
:1059300007D50D0605D5A36E002B3FF464AF2046B6
:10594000E5E650067FF55FAF4A067FF55CAF53E8AA
:10595000002F22F0400243E800210029F7D1202344
:10596000A367A1662046FFF741FE4CE72001000433
:10597000F155000808B5C36F0268222B44D1938CFF
:10598000B0F85C10426D0B401370436D01334365FA
:10599000B0F85A30013B9BB2A0F85A30B0F85A30F8
:1059A0009BB26BBB026852E8003F23F4907342E85D
:1059B000003103680029F5D103F1080252E8002FF5
:1059C00022F0010203F1080C4CE800210029F3D178
:1059D0002022C267026E4166012A12D1016653E895
:1059E000002F22F0100243E800210029F7D1DA69E4
:1059F000B0F85810D20644BF10221A62FFF773FEA7
:105A000008BDFCF721FAFBE7138B9BB243F00803B8
:105A10001383F5E7C26F222A08B5036841D1998C38
:105A2000B0F85C201140426D22F8021B4265B0F8CC
:105A30005A20013A92B2A0F85A20B0F85A2092B2F5
:105A40005ABB53E8002F22F4907243E8002100294A
:105A5000F7D103F1080252E8002F22F0010203F10E
:105A6000080C4CE800210029F3D12022C267026E05
:105A70004166012A12D1016653E8002F22F010027C
:105A800043E800210029F7D1DA69B0F85810D206AE
:105A900044BF10221A62FFF726FE08BDFCF7D4F9B6
:105AA000FBE71A8B92B242F008021A83F5E7000076
:105AB00070B5044603682169A2681D68C0690A437D
:105AC00061690A437949024329400A431A605A68C6
:105AD000E16822F440520A435A60754AA169934230
